{
  "contractName": "CourseIDO",
  "abi": [
    {
      "inputs": [
        {
          "internalType": "address",
          "name": "_IDOTokenAddress",
          "type": "address"
        },
        {
          "internalType": "address payable",
          "name": "_withdrawAddress",
          "type": "address"
        }
      ],
      "stateMutability": "nonpayable",
      "type": "constructor"
    },
    {
      "inputs": [
        {
          "internalType": "address",
          "name": "",
          "type": "address"
        }
      ],
      "name": "Admins",
      "outputs": [
        {
          "internalType": "bool",
          "name": "",
          "type": "bool"
        }
      ],
      "stateMutability": "view",
      "type": "function",
      "constant": true
    },
    {
      "inputs": [],
      "name": "IDOTokenAddress",
      "outputs": [
        {
          "internalType": "address",
          "name": "",
          "type": "address"
        }
      ],
      "stateMutability": "view",
      "type": "function",
      "constant": true
    },
    {
      "inputs": [],
      "name": "RoundID",
      "outputs": [
        {
          "internalType": "uint256",
          "name": "",
          "type": "uint256"
        }
      ],
      "stateMutability": "view",
      "type": "function",
      "constant": true
    },
    {
      "inputs": [
        {
          "internalType": "uint256",
          "name": "",
          "type": "uint256"
        }
      ],
      "name": "Rounds",
      "outputs": [
        {
          "internalType": "uint256",
          "name": "start",
          "type": "uint256"
        },
        {
          "internalType": "uint256",
          "name": "end",
          "type": "uint256"
        },
        {
          "internalType": "uint256",
          "name": "roundValue",
          "type": "uint256"
        },
        {
          "internalType": "uint256",
          "name": "maxValue",
          "type": "uint256"
        },
        {
          "internalType": "uint256",
          "name": "minValue",
          "type": "uint256"
        },
        {
          "internalType": "uint256",
          "name": "tokenRateToEth",
          "type": "uint256"
        },
        {
          "internalType": "bool",
          "name": "active",
          "type": "bool"
        }
      ],
      "stateMutability": "view",
      "type": "function",
      "constant": true
    },
    {
      "inputs": [
        {
          "internalType": "address",
          "name": "",
          "type": "address"
        },
        {
          "internalType": "uint256",
          "name": "",
          "type": "uint256"
        }
      ],
      "name": "Users",
      "outputs": [
        {
          "internalType": "uint256",
          "name": "",
          "type": "uint256"
        }
      ],
      "stateMutability": "view",
      "type": "function",
      "constant": true
    },
    {
      "inputs": [
        {
          "internalType": "address",
          "name": "",
          "type": "address"
        }
      ],
      "name": "UsersTotalValue",
      "outputs": [
        {
          "internalType": "uint256",
          "name": "",
          "type": "uint256"
        }
      ],
      "stateMutability": "view",
      "type": "function",
      "constant": true
    },
    {
      "inputs": [],
      "name": "currentRoundID",
      "outputs": [
        {
          "internalType": "uint256",
          "name": "",
          "type": "uint256"
        }
      ],
      "stateMutability": "view",
      "type": "function",
      "constant": true
    },
    {
      "inputs": [],
      "name": "withdrawAddress",
      "outputs": [
        {
          "internalType": "address payable",
          "name": "",
          "type": "address"
        }
      ],
      "stateMutability": "view",
      "type": "function",
      "constant": true
    },
    {
      "inputs": [
        {
          "internalType": "uint256",
          "name": "_start",
          "type": "uint256"
        },
        {
          "internalType": "uint256",
          "name": "_end",
          "type": "uint256"
        },
        {
          "internalType": "uint256",
          "name": "_roundValue",
          "type": "uint256"
        },
        {
          "internalType": "uint256",
          "name": "_maxValue",
          "type": "uint256"
        },
        {
          "internalType": "uint256",
          "name": "_minValue",
          "type": "uint256"
        },
        {
          "internalType": "uint256",
          "name": "_tokenRateToEth",
          "type": "uint256"
        }
      ],
      "name": "addRound",
      "outputs": [],
      "stateMutability": "nonpayable",
      "type": "function"
    },
    {
      "inputs": [
        {
          "internalType": "uint256",
          "name": "_round_id",
          "type": "uint256"
        }
      ],
      "name": "closeRound",
      "outputs": [],
      "stateMutability": "nonpayable",
      "type": "function"
    },
    {
      "inputs": [],
      "name": "getEthersForIDO",
      "outputs": [],
      "stateMutability": "payable",
      "type": "function",
      "payable": true
    }
  ],
  "bytecode": "0x60806040523480156200001157600080fd5b506040516200129b3803806200129b833981810160405281019062000037919062000147565b6001600460003373ffffffffffffffffffffffffffffffffffffffff1673ffffffffffffffffffffffffffffffffffffffff16815260200190815260200160002060006101000a81548160ff02191690831515021790555081600260006101000a81548173ffffffffffffffffffffffffffffffffffffffff021916908373ffffffffffffffffffffffffffffffffffffffff16021790555080600360006101000a81548173ffffffffffffffffffffffffffffffffffffffff021916908373ffffffffffffffffffffffffffffffffffffffff160217905550505062000204565b6000815190506200012a81620001d0565b92915050565b6000815190506200014181620001ea565b92915050565b600080604083850312156200015b57600080fd5b60006200016b8582860162000119565b92505060206200017e8582860162000130565b9150509250929050565b60006200019582620001b0565b9050919050565b6000620001a982620001b0565b9050919050565b600073ffffffffffffffffffffffffffffffffffffffff82169050919050565b620001db8162000188565b8114620001e757600080fd5b50565b620001f5816200019c565b81146200020157600080fd5b50565b61108780620002146000396000f3fe60806040526004361061009c5760003560e01c80634096c0a6116100645780634096c0a61461019a57806373900f39146101c557806388e01a9814610202578063a312c4f21461022b578063d5df9d2314610256578063f1f05595146102995761009c565b80630ec6d58a146100a15780631063715b146100de57806313e8544e146101095780631581b600146101465780633ff0751e14610171575b600080fd5b3480156100ad57600080fd5b506100c860048036038101906100c391906109a2565b6102a3565b6040516100d59190610d3d565b60405180910390f35b3480156100ea57600080fd5b506100f36102c3565b6040516101009190610e38565b60405180910390f35b34801561011557600080fd5b50610130600480360381019061012b91906109cb565b6102c9565b60405161013d9190610e38565b60405180910390f35b34801561015257600080fd5b5061015b6102ee565b6040516101689190610cf9565b60405180910390f35b34801561017d57600080fd5b5061019860048036038101906101939190610a59565b610314565b005b3480156101a657600080fd5b506101af6104e5565b6040516101bc9190610cde565b60405180910390f35b3480156101d157600080fd5b506101ec60048036038101906101e791906109a2565b61050b565b6040516101f99190610e38565b60405180910390f35b34801561020e57600080fd5b5061022960048036038101906102249190610a30565b610523565b005b34801561023757600080fd5b506102406105f0565b60405161024d9190610e38565b60405180910390f35b34801561026257600080fd5b5061027d60048036038101906102789190610a30565b6105f6565b6040516102909796959493929190610e53565b60405180910390f35b6102a1610645565b005b60046020528060005260406000206000915054906101000a900460ff1681565b60005481565b6006602052816000526040600020602052806000526040600020600091509150505481565b600360009054906101000a900473ffffffffffffffffffffffffffffffffffffffff1681565b60011515600460003373ffffffffffffffffffffffffffffffffffffffff1673ffffffffffffffffffffffffffffffffffffffff16815260200190815260200160002060009054906101000a900460ff161515146103a7576040517f08c379a000000000000000000000000000000000000000000000000000000000815260040161039e90610dd8565b60405180910390fd5b6000600154146103ec576040517f08c379a00000000000000000000000000000000000000000000000000000000081526004016103e390610e18565b60405180910390fd5b60016000808282546103fe9190610ed3565b925050819055508560056000805481526020019081526020016000206000018190555084600560008054815260200190815260200160002060010181905550836005600080548152602001908152602001600020600201819055508260056000805481526020019081526020016000206003018190555081600560008054815260200190815260200160002060040181905550806005600080548152602001908152602001600020600501819055506001600560008054815260200190815260200160002060060160006101000a81548160ff021916908315150217905550505050505050565b600260009054906101000a900473ffffffffffffffffffffffffffffffffffffffff1681565b60076020528060005260406000206000915090505481565b60011515600460003373ffffffffffffffffffffffffffffffffffffffff1673ffffffffffffffffffffffffffffffffffffffff16815260200190815260200160002060009054906101000a900460ff161515146105b6576040517f08c379a00000000000000000000000000000000000000000000000000000000081526004016105ad90610dd8565b60405180910390fd5b600060018190555060006005600083815260200190815260200160002060060160006101000a81548160ff02191690831515021790555050565b60015481565b60056020528060005260406000206000915090508060000154908060010154908060020154908060030154908060040154908060050154908060060160009054906101000a900460ff16905087565b60056000600154815260200190815260200160002060000154421161069f576040517f08c379a000000000000000000000000000000000000000000000000000000000815260040161069690610d78565b60405180910390fd5b4260056000600154815260200190815260200160002060010154116106f9576040517f08c379a00000000000000000000000000000000000000000000000000000000081526004016106f090610d58565b60405180910390fd5b6001151560056000600154815260200190815260200160002060060160009054906101000a900460ff16151514610765576040517f08c379a000000000000000000000000000000000000000000000000000000000815260040161075c90610df8565b60405180910390fd5b3460056000600154815260200190815260200160002060030154116107bf576040517f08c379a00000000000000000000000000000000000000000000000000000000081526004016107b690610db8565b60405180910390fd5b346005600060015481526020019081526020016000206004015410610819576040517f08c379a000000000000000000000000000000000000000000000000000000000815260040161081090610d98565b60405180910390fd5b6000600560006001548152602001908152602001600020600501543461083f9190610f29565b90506000600260009054906101000a900473ffffffffffffffffffffffffffffffffffffffff1690508073ffffffffffffffffffffffffffffffffffffffff166340c10f1933846040518363ffffffff1660e01b81526004016108a3929190610d14565b602060405180830381600087803b1580156108bd57600080fd5b505af11580156108d1573d6000803e3d6000fd5b505050506040513d601f19601f820116820180604052508101906108f59190610a07565b50600360009054906101000a900473ffffffffffffffffffffffffffffffffffffffff1673ffffffffffffffffffffffffffffffffffffffff166108fc349081150290604051600060405180830381858888f1935050505015801561095e573d6000803e3d6000fd5b505050565b6000813590506109728161100c565b92915050565b60008151905061098781611023565b92915050565b60008135905061099c8161103a565b92915050565b6000602082840312156109b457600080fd5b60006109c284828501610963565b91505092915050565b600080604083850312156109de57600080fd5b60006109ec85828601610963565b92505060206109fd8582860161098d565b9150509250929050565b600060208284031215610a1957600080fd5b6000610a2784828501610978565b91505092915050565b600060208284031215610a4257600080fd5b6000610a508482850161098d565b91505092915050565b60008060008060008060c08789031215610a7257600080fd5b6000610a8089828a0161098d565b9650506020610a9189828a0161098d565b9550506040610aa289828a0161098d565b9450506060610ab389828a0161098d565b9350506080610ac489828a0161098d565b92505060a0610ad589828a0161098d565b9150509295509295509295565b610aeb81610f95565b82525050565b610afa81610f83565b82525050565b610b0981610fa7565b82525050565b6000610b1c600f83610ec2565b91507f4265666f726520656e64206f6e6c7900000000000000000000000000000000006000830152602082019050919050565b6000610b5c601283610ec2565b91507f41637469766520616674657220737461727400000000000000000000000000006000830152602082019050919050565b6000610b9c600983610ec2565b91507f4d696e204c696d697400000000000000000000000000000000000000000000006000830152602082019050919050565b6000610bdc600983610ec2565b91507f4d6178204c696d697400000000000000000000000000000000000000000000006000830152602082019050919050565b6000610c1c600b83610ec2565b91507f4f6e6c792061646d696e730000000000000000000000000000000000000000006000830152602082019050919050565b6000610c5c601083610ec2565b91507f4e6f742061637469766520726f756e64000000000000000000000000000000006000830152602082019050919050565b6000610c9c600e83610ec2565b91507f4f6e6c79206f6e6520726f756e640000000000000000000000000000000000006000830152602082019050919050565b610cd881610fd3565b82525050565b6000602082019050610cf36000830184610af1565b92915050565b6000602082019050610d0e6000830184610ae2565b92915050565b6000604082019050610d296000830185610af1565b610d366020830184610ccf565b9392505050565b6000602082019050610d526000830184610b00565b92915050565b60006020820190508181036000830152610d7181610b0f565b9050919050565b60006020820190508181036000830152610d9181610b4f565b9050919050565b60006020820190508181036000830152610db181610b8f565b9050919050565b60006020820190508181036000830152610dd181610bcf565b9050919050565b60006020820190508181036000830152610df181610c0f565b9050919050565b60006020820190508181036000830152610e1181610c4f565b9050919050565b60006020820190508181036000830152610e3181610c8f565b9050919050565b6000602082019050610e4d6000830184610ccf565b92915050565b600060e082019050610e68600083018a610ccf565b610e756020830189610ccf565b610e826040830188610ccf565b610e8f6060830187610ccf565b610e9c6080830186610ccf565b610ea960a0830185610ccf565b610eb660c0830184610b00565b98975050505050505050565b600082825260208201905092915050565b6000610ede82610fd3565b9150610ee983610fd3565b9250827fffffffffffffffffffffffffffffffffffffffffffffffffffffffffffffffff03821115610f1e57610f1d610fdd565b5b828201905092915050565b6000610f3482610fd3565b9150610f3f83610fd3565b9250817fffffffffffffffffffffffffffffffffffffffffffffffffffffffffffffffff0483118215151615610f7857610f77610fdd565b5b828202905092915050565b6000610f8e82610fb3565b9050919050565b6000610fa082610fb3565b9050919050565b60008115159050919050565b600073ffffffffffffffffffffffffffffffffffffffff82169050919050565b6000819050919050565b7f4e487b7100000000000000000000000000000000000000000000000000000000600052601160045260246000fd5b61101581610f83565b811461102057600080fd5b50565b61102c81610fa7565b811461103757600080fd5b50565b61104381610fd3565b811461104e57600080fd5b5056fea26469706673582212206df1e488aa2ce3326b2e0071b1934d49dd14258950985c191cf22b3872c8e68e64736f6c63430008000033",
  "immutableReferences": {},
  "source": "pragma solidity 0.8.0;\nimport './IERC20.sol';\ncontract CourseIDO {\n\n    \n    \n    constructor(address _IDOTokenAddress, address payable _withdrawAddress) {\n        Admins[msg.sender] = true;\n        IDOTokenAddress = _IDOTokenAddress;\n        withdrawAddress = _withdrawAddress;\n    }  \n\n    uint public RoundID;\n    uint public currentRoundID;\n    address public IDOTokenAddress;\n    address payable public withdrawAddress;\n\n    struct round {\n        uint start;\n        uint end;\n        uint roundValue; //we want to get from this ROUND OF IDO\n        uint maxValue;\n        uint minValue;\n        uint tokenRateToEth;\n        bool active;\n    }\n\n    \n\n    mapping(address => bool) public Admins;\n    mapping(uint => round) public Rounds;\n\n    mapping(address => mapping(uint => uint)) public Users;\n    mapping(address => uint) public UsersTotalValue;\n\n    modifier onlyAdmin() {\n        require(Admins[msg.sender] == true, \"Only admins\");\n        _;\n    }\n\n    function addRound(uint _start, \n                      uint _end, \n                      uint _roundValue,\n                      uint _maxValue,\n                      uint _minValue,\n                      uint _tokenRateToEth) public onlyAdmin {\n        require(currentRoundID == 0, \"Only one round\");\n        RoundID += 1;\n        Rounds[RoundID].start = _start;\n        Rounds[RoundID].end = _end;\n        Rounds[RoundID].roundValue = _roundValue;\n        Rounds[RoundID].maxValue = _maxValue;\n        Rounds[RoundID].minValue = _minValue;\n        Rounds[RoundID].tokenRateToEth = _tokenRateToEth;\n        Rounds[RoundID].active = true;\n    }\n\n    function closeRound(uint _round_id) public onlyAdmin {\n        currentRoundID = 0;\n        Rounds[_round_id].active = false;\n    }\n \n    function getEthersForIDO() public payable {\n         require(block.timestamp > Rounds[currentRoundID].start, \"Active after start\");\n         require(Rounds[currentRoundID].end > block.timestamp, \"Before end only\");\n         require(Rounds[currentRoundID].active == true, \"Not active round\");\n         require(Rounds[currentRoundID].maxValue > msg.value, \"Max Limit\");\n         require(Rounds[currentRoundID].minValue < msg.value, \"Min Limit\");\n         uint _value = msg.value * Rounds[currentRoundID].tokenRateToEth;\n         IERC20 _token = IERC20(IDOTokenAddress);\n         _token.mint(msg.sender, _value);\n         withdrawAddress.transfer(msg.value);\n    }\n\n\n}",
  "sourcePath": "/Users/pro/Development/blockchain/solidity_course/courseIDO/contracts/CourseIDO.sol",
  "compiler": {
    "name": "solc",
    "version": "0.8.0+commit.c7dfd78e.Emscripten.clang"
  },
  "schemaVersion": "3.3.3",
  "updatedAt": "2021-08-07T09:53:55.234Z",
  "networkType": "ethereum",
  "devdoc": {
    "kind": "dev",
    "methods": {},
    "version": 1
  },
  "userdoc": {
    "kind": "user",
    "methods": {},
    "version": 1
  }
}