{
  "contractName": "BuyCars",
  "abi": [
    {
      "inputs": [],
      "stateMutability": "nonpayable",
      "type": "constructor"
    },
    {
      "anonymous": false,
      "inputs": [
        {
          "indexed": false,
          "internalType": "uint256",
          "name": "_tokens",
          "type": "uint256"
        }
      ],
      "name": "createOrderEvent",
      "type": "event"
    },
    {
      "inputs": [],
      "name": "CarID",
      "outputs": [
        {
          "internalType": "uint256",
          "name": "",
          "type": "uint256"
        }
      ],
      "stateMutability": "view",
      "type": "function"
    },
    {
      "inputs": [
        {
          "internalType": "uint256",
          "name": "",
          "type": "uint256"
        }
      ],
      "name": "Cars",
      "outputs": [
        {
          "internalType": "uint256",
          "name": "price",
          "type": "uint256"
        },
        {
          "internalType": "string",
          "name": "brand",
          "type": "string"
        },
        {
          "internalType": "string",
          "name": "model",
          "type": "string"
        }
      ],
      "stateMutability": "view",
      "type": "function"
    },
    {
      "inputs": [],
      "name": "OrderID",
      "outputs": [
        {
          "internalType": "uint256",
          "name": "",
          "type": "uint256"
        }
      ],
      "stateMutability": "view",
      "type": "function"
    },
    {
      "inputs": [
        {
          "internalType": "uint256",
          "name": "",
          "type": "uint256"
        }
      ],
      "name": "Orders",
      "outputs": [
        {
          "internalType": "uint256",
          "name": "userID",
          "type": "uint256"
        },
        {
          "internalType": "uint256",
          "name": "carID",
          "type": "uint256"
        },
        {
          "internalType": "uint256",
          "name": "date",
          "type": "uint256"
        },
        {
          "internalType": "bool",
          "name": "active",
          "type": "bool"
        },
        {
          "internalType": "uint256",
          "name": "tokens",
          "type": "uint256"
        }
      ],
      "stateMutability": "view",
      "type": "function"
    },
    {
      "inputs": [],
      "name": "UserID",
      "outputs": [
        {
          "internalType": "uint256",
          "name": "",
          "type": "uint256"
        }
      ],
      "stateMutability": "view",
      "type": "function"
    },
    {
      "inputs": [
        {
          "internalType": "uint256",
          "name": "",
          "type": "uint256"
        }
      ],
      "name": "UserIDs",
      "outputs": [
        {
          "internalType": "address",
          "name": "",
          "type": "address"
        }
      ],
      "stateMutability": "view",
      "type": "function"
    },
    {
      "inputs": [
        {
          "internalType": "address",
          "name": "",
          "type": "address"
        }
      ],
      "name": "Users",
      "outputs": [
        {
          "internalType": "string",
          "name": "name",
          "type": "string"
        },
        {
          "internalType": "uint256",
          "name": "tokens",
          "type": "uint256"
        }
      ],
      "stateMutability": "view",
      "type": "function"
    },
    {
      "inputs": [],
      "name": "bonusTokenAddress",
      "outputs": [
        {
          "internalType": "address",
          "name": "",
          "type": "address"
        }
      ],
      "stateMutability": "view",
      "type": "function"
    },
    {
      "inputs": [],
      "name": "owner",
      "outputs": [
        {
          "internalType": "address",
          "name": "",
          "type": "address"
        }
      ],
      "stateMutability": "view",
      "type": "function"
    },
    {
      "inputs": [
        {
          "internalType": "address",
          "name": "_address",
          "type": "address"
        }
      ],
      "name": "setBonusTokenAddress",
      "outputs": [],
      "stateMutability": "nonpayable",
      "type": "function"
    },
    {
      "inputs": [
        {
          "internalType": "string",
          "name": "_name",
          "type": "string"
        }
      ],
      "name": "addUser",
      "outputs": [],
      "stateMutability": "nonpayable",
      "type": "function"
    },
    {
      "inputs": [
        {
          "internalType": "string",
          "name": "_brand",
          "type": "string"
        },
        {
          "internalType": "string",
          "name": "_model",
          "type": "string"
        },
        {
          "internalType": "uint256",
          "name": "_price",
          "type": "uint256"
        }
      ],
      "name": "addCar",
      "outputs": [],
      "stateMutability": "nonpayable",
      "type": "function"
    },
    {
      "inputs": [
        {
          "internalType": "uint256",
          "name": "_car_id",
          "type": "uint256"
        },
        {
          "internalType": "uint256",
          "name": "_user_id",
          "type": "uint256"
        }
      ],
      "name": "createOrder",
      "outputs": [],
      "stateMutability": "nonpayable",
      "type": "function"
    },
    {
      "inputs": [
        {
          "internalType": "uint256",
          "name": "_order_id",
          "type": "uint256"
        },
        {
          "internalType": "uint256",
          "name": "_user_id",
          "type": "uint256"
        }
      ],
      "name": "checkUserTokens",
      "outputs": [],
      "stateMutability": "nonpayable",
      "type": "function"
    },
    {
      "inputs": [
        {
          "internalType": "uint256",
          "name": "_order_id",
          "type": "uint256"
        }
      ],
      "name": "payByTokens",
      "outputs": [],
      "stateMutability": "nonpayable",
      "type": "function"
    }
  ],
  "bytecode": "0x608060405234801561001057600080fd5b50336000806101000a81548173ffffffffffffffffffffffffffffffffffffffff021916908373ffffffffffffffffffffffffffffffffffffffff1602179055506118bb806100606000396000f3fe608060405234801561001057600080fd5b50600436106100f55760003560e01c80638da5cb5b11610097578063a94661e311610066578063a94661e314610275578063cfcdf44314610291578063ea3e7909146102af578063f40e03c2146102cd576100f5565b80638da5cb5b146101d45780638fb326f2146101f257806399b956a0146102265780639aadee0214610257576100f5565b80632dc7e901116100d35780632dc7e9011461014e57806371c2b3c21461017e5780637331d7e91461019a57806379109baa146101b8576100f5565b80630212d0b9146100fa57806305574ee91461011657806318b8275a14610132575b600080fd5b610114600480360381019061010f91906111e2565b6102ff565b005b610130600480360381019061012b9190611157565b610568565b005b61014c6004803603810190610147919061110e565b61068c565b005b610168600480360381019061016391906111e2565b6107e2565b60405161017591906112fb565b60405180910390f35b6101986004803603810190610193919061120f565b610815565b005b6101a26108a7565b6040516101af91906113e6565b60405180910390f35b6101d260048036038101906101cd919061120f565b6108ad565b005b6101dc610c11565b6040516101e991906112fb565b60405180910390f35b61020c600480360381019061020791906111e2565b610c35565b60405161021d959493929190611446565b60405180910390f35b610240600480360381019061023b91906110b4565b610c78565b60405161024e929190611376565b60405180910390f35b61025f610d24565b60405161026c91906113e6565b60405180910390f35b61028f600480360381019061028a91906110b4565b610d2a565b005b610299610dfc565b6040516102a691906112fb565b60405180910390f35b6102b7610e22565b6040516102c491906113e6565b60405180910390f35b6102e760048036038101906102e291906111e2565b610e28565b6040516102f693929190611401565b60405180910390f35b60006008600083815260200190815260200160002060040154905080600560003373ffffffffffffffffffffffffffffffffffffffff1673ffffffffffffffffffffffffffffffffffffffff16815260200190815260200160002060010154101561039f576040517f08c379a0000000000000000000000000000000000000000000000000000000008152600401610396906113c6565b60405180910390fd5b6000600160009054906101000a900473ffffffffffffffffffffffffffffffffffffffff1690508073ffffffffffffffffffffffffffffffffffffffff166323b872dd3330670de0b6b3a7640000866103f89190611592565b6040518463ffffffff1660e01b815260040161041693929190611316565b602060405180830381600087803b15801561043057600080fd5b505af1158015610444573d6000803e3d6000fd5b505050506040513d601f19601f8201168201806040525081019061046891906110e1565b508073ffffffffffffffffffffffffffffffffffffffff16639dc29fac30670de0b6b3a76400008561049a9190611592565b6040518363ffffffff1660e01b81526004016104b792919061134d565b602060405180830381600087803b1580156104d157600080fd5b505af11580156104e5573d6000803e3d6000fd5b505050506040513d601f19601f8201168201806040525081019061050991906110e1565b5081600560003373ffffffffffffffffffffffffffffffffffffffff1673ffffffffffffffffffffffffffffffffffffffff168152602001908152602001600020600101600082825461055c91906115ec565b92505081905550505050565b3373ffffffffffffffffffffffffffffffffffffffff1660008054906101000a900473ffffffffffffffffffffffffffffffffffffffff1673ffffffffffffffffffffffffffffffffffffffff16146105f6576040517f08c379a00000000000000000000000000000000000000000000000000000000081526004016105ed906113a6565b60405180910390fd5b600160036000828254610609919061150b565b9250508190555082600760006003548152602001908152602001600020600101908051906020019061063c929190610f62565b50816007600060035481526020019081526020016000206002019080519060200190610669929190610f62565b508060076000600354815260200190815260200160002060000181905550505050565b3373ffffffffffffffffffffffffffffffffffffffff1660008054906101000a900473ffffffffffffffffffffffffffffffffffffffff1673ffffffffffffffffffffffffffffffffffffffff161461071a576040517f08c379a0000000000000000000000000000000000000000000000000000000008152600401610711906113a6565b60405180910390fd5b60016002600082825461072d919061150b565b9250508190555080600560003373ffffffffffffffffffffffffffffffffffffffff1673ffffffffffffffffffffffffffffffffffffffff168152602001908152602001600020600001908051906020019061078a929190610f62565b503360066000600254815260200190815260200160002060006101000a81548173ffffffffffffffffffffffffffffffffffffffff021916908373ffffffffffffffffffffffffffffffffffffffff16021790555050565b60066020528060005260406000206000915054906101000a900473ffffffffffffffffffffffffffffffffffffffff1681565b3373ffffffffffffffffffffffffffffffffffffffff1660008054906101000a900473ffffffffffffffffffffffffffffffffffffffff1673ffffffffffffffffffffffffffffffffffffffff16146108a3576040517f08c379a000000000000000000000000000000000000000000000000000000000815260040161089a906113a6565b60405180910390fd5b5050565b60045481565b3373ffffffffffffffffffffffffffffffffffffffff1660008054906101000a900473ffffffffffffffffffffffffffffffffffffffff1673ffffffffffffffffffffffffffffffffffffffff161461093b576040517f08c379a0000000000000000000000000000000000000000000000000000000008152600401610932906113a6565b60405180910390fd5b60016004600082825461094e919061150b565b92505081905550806008600060045481526020019081526020016000206000018190555081600860006004548152602001908152602001600020600101819055504260086000600454815260200190815260200160002060020181905550600160086000600454815260200190815260200160002060030160006101000a81548160ff02191690831515021790555060006006600083815260200190815260200160002060009054906101000a900473ffffffffffffffffffffffffffffffffffffffff169050600560008273ffffffffffffffffffffffffffffffffffffffff1673ffffffffffffffffffffffffffffffffffffffff1681526020019081526020016000206002016004549080600181540180825580915050600190039060005260206000200160009091909190915055600060646007600086815260200190815260200160002060000154610aa59190611561565b9050806008600060045481526020019081526020016000206004018190555080600560008473ffffffffffffffffffffffffffffffffffffffff1673ffffffffffffffffffffffffffffffffffffffff168152602001908152602001600020600101819055506000600160009054906101000a900473ffffffffffffffffffffffffffffffffffffffff1690508073ffffffffffffffffffffffffffffffffffffffff166340c10f1984670de0b6b3a764000085610b639190611592565b6040518363ffffffff1660e01b8152600401610b8092919061134d565b602060405180830381600087803b158015610b9a57600080fd5b505af1158015610bae573d6000803e3d6000fd5b505050506040513d601f19601f82011682018060405250810190610bd291906110e1565b507f69779996a991d45551f764f92d74f416ae6ccbff1babfa7b555efb59cde59adf82604051610c0291906113e6565b60405180910390a15050505050565b60008054906101000a900473ffffffffffffffffffffffffffffffffffffffff1681565b60086020528060005260406000206000915090508060000154908060010154908060020154908060030160009054906101000a900460ff16908060040154905085565b6005602052806000526040600020600091509050806000018054610c9b906116aa565b80601f0160208091040260200160405190810160405280929190818152602001828054610cc7906116aa565b8015610d145780601f10610ce957610100808354040283529160200191610d14565b820191906000526020600020905b815481529060010190602001808311610cf757829003601f168201915b5050505050908060010154905082565b60025481565b3373ffffffffffffffffffffffffffffffffffffffff1660008054906101000a900473ffffffffffffffffffffffffffffffffffffffff1673ffffffffffffffffffffffffffffffffffffffff1614610db8576040517f08c379a0000000000000000000000000000000000000000000000000000000008152600401610daf906113a6565b60405180910390fd5b80600160006101000a81548173ffffffffffffffffffffffffffffffffffffffff021916908373ffffffffffffffffffffffffffffffffffffffff16021790555050565b600160009054906101000a900473ffffffffffffffffffffffffffffffffffffffff1681565b60035481565b6007602052806000526040600020600091509050806000015490806001018054610e51906116aa565b80601f0160208091040260200160405190810160405280929190818152602001828054610e7d906116aa565b8015610eca5780601f10610e9f57610100808354040283529160200191610eca565b820191906000526020600020905b815481529060010190602001808311610ead57829003601f168201915b505050505090806002018054610edf906116aa565b80601f0160208091040260200160405190810160405280929190818152602001828054610f0b906116aa565b8015610f585780601f10610f2d57610100808354040283529160200191610f58565b820191906000526020600020905b815481529060010190602001808311610f3b57829003601f168201915b5050505050905083565b828054610f6e906116aa565b90600052602060002090601f016020900481019282610f905760008555610fd7565b82601f10610fa957805160ff1916838001178555610fd7565b82800160010185558215610fd7579182015b82811115610fd6578251825591602001919060010190610fbb565b5b509050610fe49190610fe8565b5090565b5b80821115611001576000816000905550600101610fe9565b5090565b6000611018611013846114be565b611499565b905082815260208101848484011115611034576110336117ce565b5b61103f848285611668565b509392505050565b60008135905061105681611840565b92915050565b60008151905061106b81611857565b92915050565b600082601f830112611086576110856117c9565b5b8135611096848260208601611005565b91505092915050565b6000813590506110ae8161186e565b92915050565b6000602082840312156110ca576110c96117d8565b5b60006110d884828501611047565b91505092915050565b6000602082840312156110f7576110f66117d8565b5b60006111058482850161105c565b91505092915050565b600060208284031215611124576111236117d8565b5b600082013567ffffffffffffffff811115611142576111416117d3565b5b61114e84828501611071565b91505092915050565b6000806000606084860312156111705761116f6117d8565b5b600084013567ffffffffffffffff81111561118e5761118d6117d3565b5b61119a86828701611071565b935050602084013567ffffffffffffffff8111156111bb576111ba6117d3565b5b6111c786828701611071565b92505060406111d88682870161109f565b9150509250925092565b6000602082840312156111f8576111f76117d8565b5b60006112068482850161109f565b91505092915050565b60008060408385031215611226576112256117d8565b5b60006112348582860161109f565b92505060206112458582860161109f565b9150509250929050565b61125881611620565b82525050565b61126781611632565b82525050565b6000611278826114ef565b61128281856114fa565b9350611292818560208601611677565b61129b816117dd565b840191505092915050565b60006112b36016836114fa565b91506112be826117ee565b602082019050919050565b60006112d66012836114fa565b91506112e182611817565b602082019050919050565b6112f58161165e565b82525050565b6000602082019050611310600083018461124f565b92915050565b600060608201905061132b600083018661124f565b611338602083018561124f565b61134560408301846112ec565b949350505050565b6000604082019050611362600083018561124f565b61136f60208301846112ec565b9392505050565b60006040820190508181036000830152611390818561126d565b905061139f60208301846112ec565b9392505050565b600060208201905081810360008301526113bf816112a6565b9050919050565b600060208201905081810360008301526113df816112c9565b9050919050565b60006020820190506113fb60008301846112ec565b92915050565b600060608201905061141660008301866112ec565b8181036020830152611428818561126d565b9050818103604083015261143c818461126d565b9050949350505050565b600060a08201905061145b60008301886112ec565b61146860208301876112ec565b61147560408301866112ec565b611482606083018561125e565b61148f60808301846112ec565b9695505050505050565b60006114a36114b4565b90506114af82826116dc565b919050565b6000604051905090565b600067ffffffffffffffff8211156114d9576114d861179a565b5b6114e2826117dd565b9050602081019050919050565b600081519050919050565b600082825260208201905092915050565b60006115168261165e565b91506115218361165e565b9250827fffffffffffffffffffffffffffffffffffffffffffffffffffffffffffffffff038211156115565761155561170d565b5b828201905092915050565b600061156c8261165e565b91506115778361165e565b9250826115875761158661173c565b5b828204905092915050565b600061159d8261165e565b91506115a88361165e565b9250817fffffffffffffffffffffffffffffffffffffffffffffffffffffffffffffffff04831182151516156115e1576115e061170d565b5b828202905092915050565b60006115f78261165e565b91506116028361165e565b9250828210156116155761161461170d565b5b828203905092915050565b600061162b8261163e565b9050919050565b60008115159050919050565b600073ffffffffffffffffffffffffffffffffffffffff82169050919050565b6000819050919050565b82818337600083830152505050565b60005b8381101561169557808201518184015260208101905061167a565b838111156116a4576000848401525b50505050565b600060028204905060018216806116c257607f821691505b602082108114156116d6576116d561176b565b5b50919050565b6116e5826117dd565b810181811067ffffffffffffffff821117156117045761170361179a565b5b80604052505050565b7f4e487b7100000000000000000000000000000000000000000000000000000000600052601160045260246000fd5b7f4e487b7100000000000000000000000000000000000000000000000000000000600052601260045260246000fd5b7f4e487b7100000000000000000000000000000000000000000000000000000000600052602260045260246000fd5b7f4e487b7100000000000000000000000000000000000000000000000000000000600052604160045260246000fd5b600080fd5b600080fd5b600080fd5b600080fd5b6000601f19601f8301169050919050565b7f4f6e6c79206f776e65722063616e20646f207468697300000000000000000000600082015250565b7f4e6f7420656e6f7567687420746f6b656e730000000000000000000000000000600082015250565b61184981611620565b811461185457600080fd5b50565b61186081611632565b811461186b57600080fd5b50565b6118778161165e565b811461188257600080fd5b5056fea2646970667358221220314a543cff0dcaeec8724f0905fee07d97281ea767c49273b67ba3a55be4dda664736f6c63430008050033",
  "immutableReferences": {},
  "source": "pragma solidity ^0.8.5;\n\nimport \"./IERC20.sol\";\n\ncontract BuyCars {\n    \n    \n    address public owner;\n    address public bonusTokenAddress;\n    \n    event createOrderEvent(uint _tokens);\n    \n    constructor() {\n        owner = msg.sender;\n    }\n    \n    \n    modifier onlyOwner() {\n        require(owner == msg.sender, \"Only owner can do this\");\n        _;\n    }\n    \n    \n    uint public UserID;\n    uint public CarID;\n    uint public OrderID;\n    \n    struct car {\n        uint price;\n        string brand;\n        string model;\n    }\n    \n    struct order {\n        uint userID;\n        uint carID;\n        uint date;\n        bool active;\n        uint tokens;\n    }\n    \n    struct user {\n        string name;\n        uint tokens;\n        uint[] orders;\n    }\n    \n    mapping(address => user) public Users;\n    mapping(uint => address) public UserIDs;\n    mapping(uint => car) public Cars;\n    mapping(uint => order) public Orders;\n    \n    \n    //FUNCTIONS\n    \n    //Function for adding users to smart contract\n    \n    function setBonusTokenAddress(address _address) public onlyOwner {\n        bonusTokenAddress = _address;\n    }\n    \n    \n    function addUser(string memory _name) public onlyOwner {\n        UserID += 1;\n        Users[msg.sender].name = _name;\n        UserIDs[UserID] = msg.sender;\n    }\n    \n    function addCar(string memory _brand, string memory _model, uint _price) public onlyOwner{\n        CarID += 1;\n        Cars[CarID].brand = _brand;\n        Cars[CarID].model = _model;\n        Cars[CarID].price = _price;\n    }\n    \n    \n    function createOrder(uint _car_id, uint _user_id) public onlyOwner {\n        OrderID += 1;\n        Orders[OrderID].userID = _user_id;\n        Orders[OrderID].carID = _car_id;\n        Orders[OrderID].date = block.timestamp;\n        Orders[OrderID].active = true;\n        address _user_address = UserIDs[_user_id];\n        Users[_user_address].orders.push(OrderID);\n        uint _tokens = Cars[_car_id].price/100; \n        Orders[OrderID].tokens = _tokens;\n        Users[_user_address].tokens = _tokens;\n        IERC20 _bonusToken = IERC20(bonusTokenAddress);\n        _bonusToken.mint(_user_address, _tokens * 10 ** 18);\n        emit createOrderEvent(_tokens);\n        \n    }\n\n\n    function checkUserTokens(uint _order_id, uint _user_id) public onlyOwner {\n        \n    }\n\n\n    function payByTokens(uint _order_id) public {\n        uint _amount = Orders[_order_id].tokens; \n        require(Users[msg.sender].tokens >= _amount, \"Not enought tokens\");\n        IERC20 _bon_token = IERC20(bonusTokenAddress);\n        _bon_token.transferFrom(msg.sender, address(this), _amount * 10 ** 18);\n        _bon_token.burn(address(this),_amount * 10 ** 18);\n        Users[msg.sender].tokens -= _amount;\n    }\n\n\n    \n    \n    \n    \n}",
  "sourcePath": "/home/arseniy/vsprojects/bch/l2/contracts/buyCar.sol",
  "compiler": {
    "name": "solc",
    "version": "0.8.5+commit.a4f2e591.Emscripten.clang"
  },
  "schemaVersion": "3.4.1",
  "updatedAt": "2021-07-10T11:55:07.795Z",
  "devdoc": {
    "kind": "dev",
    "methods": {},
    "version": 1
  },
  "userdoc": {
    "kind": "user",
    "methods": {},
    "version": 1
  }
}