{
  "contractName": "BuyCars",
  "abi": [
    {
      "inputs": [
        {
          "internalType": "address",
          "name": "_btkaddr",
          "type": "address"
        }
      ],
      "stateMutability": "nonpayable",
      "type": "constructor"
    },
    {
      "anonymous": false,
      "inputs": [
        {
          "indexed": false,
          "internalType": "uint256",
          "name": "_tokens",
          "type": "uint256"
        }
      ],
      "name": "createOrderEvent",
      "type": "event"
    },
    {
      "inputs": [],
      "name": "CarID",
      "outputs": [
        {
          "internalType": "uint256",
          "name": "",
          "type": "uint256"
        }
      ],
      "stateMutability": "view",
      "type": "function",
      "constant": true
    },
    {
      "inputs": [
        {
          "internalType": "uint256",
          "name": "",
          "type": "uint256"
        }
      ],
      "name": "Cars",
      "outputs": [
        {
          "internalType": "uint256",
          "name": "price",
          "type": "uint256"
        },
        {
          "internalType": "string",
          "name": "brand",
          "type": "string"
        },
        {
          "internalType": "string",
          "name": "model",
          "type": "string"
        }
      ],
      "stateMutability": "view",
      "type": "function",
      "constant": true
    },
    {
      "inputs": [],
      "name": "OrderID",
      "outputs": [
        {
          "internalType": "uint256",
          "name": "",
          "type": "uint256"
        }
      ],
      "stateMutability": "view",
      "type": "function",
      "constant": true
    },
    {
      "inputs": [
        {
          "internalType": "uint256",
          "name": "",
          "type": "uint256"
        }
      ],
      "name": "Orders",
      "outputs": [
        {
          "internalType": "uint256",
          "name": "userID",
          "type": "uint256"
        },
        {
          "internalType": "uint256",
          "name": "carID",
          "type": "uint256"
        },
        {
          "internalType": "uint256",
          "name": "date",
          "type": "uint256"
        },
        {
          "internalType": "bool",
          "name": "active",
          "type": "bool"
        },
        {
          "internalType": "uint256",
          "name": "tokens",
          "type": "uint256"
        }
      ],
      "stateMutability": "view",
      "type": "function",
      "constant": true
    },
    {
      "inputs": [],
      "name": "ServicesOrderID",
      "outputs": [
        {
          "internalType": "uint256",
          "name": "",
          "type": "uint256"
        }
      ],
      "stateMutability": "view",
      "type": "function",
      "constant": true
    },
    {
      "inputs": [
        {
          "internalType": "uint256",
          "name": "",
          "type": "uint256"
        }
      ],
      "name": "ServicesOrders",
      "outputs": [
        {
          "internalType": "address",
          "name": "userAddress",
          "type": "address"
        },
        {
          "internalType": "uint256",
          "name": "price",
          "type": "uint256"
        },
        {
          "internalType": "uint256",
          "name": "date",
          "type": "uint256"
        }
      ],
      "stateMutability": "view",
      "type": "function",
      "constant": true
    },
    {
      "inputs": [],
      "name": "UserID",
      "outputs": [
        {
          "internalType": "uint256",
          "name": "",
          "type": "uint256"
        }
      ],
      "stateMutability": "view",
      "type": "function",
      "constant": true
    },
    {
      "inputs": [
        {
          "internalType": "uint256",
          "name": "",
          "type": "uint256"
        }
      ],
      "name": "UserIDs",
      "outputs": [
        {
          "internalType": "address",
          "name": "",
          "type": "address"
        }
      ],
      "stateMutability": "view",
      "type": "function",
      "constant": true
    },
    {
      "inputs": [
        {
          "internalType": "address",
          "name": "",
          "type": "address"
        }
      ],
      "name": "Users",
      "outputs": [
        {
          "internalType": "string",
          "name": "name",
          "type": "string"
        },
        {
          "internalType": "uint256",
          "name": "tokens",
          "type": "uint256"
        }
      ],
      "stateMutability": "view",
      "type": "function",
      "constant": true
    },
    {
      "inputs": [],
      "name": "accounter",
      "outputs": [
        {
          "internalType": "address",
          "name": "",
          "type": "address"
        }
      ],
      "stateMutability": "view",
      "type": "function",
      "constant": true
    },
    {
      "inputs": [],
      "name": "bonusTokenAddress",
      "outputs": [
        {
          "internalType": "address",
          "name": "",
          "type": "address"
        }
      ],
      "stateMutability": "view",
      "type": "function",
      "constant": true
    },
    {
      "inputs": [],
      "name": "owner",
      "outputs": [
        {
          "internalType": "address",
          "name": "",
          "type": "address"
        }
      ],
      "stateMutability": "view",
      "type": "function",
      "constant": true
    },
    {
      "inputs": [
        {
          "internalType": "address",
          "name": "_address",
          "type": "address"
        }
      ],
      "name": "setBonusTokenAddress",
      "outputs": [],
      "stateMutability": "nonpayable",
      "type": "function"
    },
    {
      "inputs": [
        {
          "internalType": "address",
          "name": "_address",
          "type": "address"
        }
      ],
      "name": "addAccounter",
      "outputs": [],
      "stateMutability": "nonpayable",
      "type": "function"
    },
    {
      "inputs": [
        {
          "internalType": "string",
          "name": "_name",
          "type": "string"
        },
        {
          "internalType": "address",
          "name": "_userAddress",
          "type": "address"
        }
      ],
      "name": "addUser",
      "outputs": [],
      "stateMutability": "nonpayable",
      "type": "function"
    },
    {
      "inputs": [
        {
          "internalType": "string",
          "name": "_brand",
          "type": "string"
        },
        {
          "internalType": "string",
          "name": "_model",
          "type": "string"
        },
        {
          "internalType": "uint256",
          "name": "_price",
          "type": "uint256"
        }
      ],
      "name": "addCar",
      "outputs": [],
      "stateMutability": "nonpayable",
      "type": "function"
    },
    {
      "inputs": [
        {
          "internalType": "uint256",
          "name": "_car_id",
          "type": "uint256"
        },
        {
          "internalType": "uint256",
          "name": "_user_id",
          "type": "uint256"
        }
      ],
      "name": "createOrder",
      "outputs": [],
      "stateMutability": "nonpayable",
      "type": "function"
    },
    {
      "inputs": [
        {
          "internalType": "address",
          "name": "_address",
          "type": "address"
        },
        {
          "internalType": "uint256",
          "name": "_price",
          "type": "uint256"
        }
      ],
      "name": "createServiceOrder",
      "outputs": [],
      "stateMutability": "nonpayable",
      "type": "function"
    },
    {
      "inputs": [
        {
          "internalType": "uint256",
          "name": "_servOrder_id",
          "type": "uint256"
        }
      ],
      "name": "payByTokens",
      "outputs": [],
      "stateMutability": "nonpayable",
      "type": "function"
    }
  ],
  "bytecode": "0x60806040523480156200001157600080fd5b5060405162001cdb38038062001cdb8339818101604052810190620000379190620000d6565b336000806101000a81548173ffffffffffffffffffffffffffffffffffffffff021916908373ffffffffffffffffffffffffffffffffffffffff16021790555080600160006101000a81548173ffffffffffffffffffffffffffffffffffffffff021916908373ffffffffffffffffffffffffffffffffffffffff160217905550506200015b565b600081519050620000d08162000141565b92915050565b600060208284031215620000ef57620000ee6200013c565b5b6000620000ff84828501620000bf565b91505092915050565b600062000115826200011c565b9050919050565b600073ffffffffffffffffffffffffffffffffffffffff82169050919050565b600080fd5b6200014c8162000108565b81146200015857600080fd5b50565b611b70806200016b6000396000f3fe608060405234801561001057600080fd5b50600436106101215760003560e01c80638fb326f2116100ad578063baf49c4a11610071578063baf49c4a146102f9578063bd5c6a891461032b578063cfcdf44314610347578063ea3e790914610365578063f40e03c21461038357610121565b80638fb326f21461023e578063907256ea1461027257806399b956a01461028e5780639aadee02146102bf578063a94661e3146102dd57610121565b80633a07f8d3116100f45780633a07f8d3146101ac5780637331d7e9146101ca57806379109baa146101e8578063864a0d0a146102045780638da5cb5b1461022057610121565b80630212d0b91461012657806305574ee914610142578063193a7e401461015e5780632dc7e9011461017c575b600080fd5b610140600480360381019061013b9190611460565b6103b5565b005b61015c600480360381019061015791906113d5565b61059f565b005b6101666106c3565b6040516101739190611579565b60405180910390f35b61019660048036038101906101919190611460565b6106e9565b6040516101a39190611579565b60405180910390f35b6101b461071c565b6040516101c1919061169b565b60405180910390f35b6101d2610722565b6040516101df919061169b565b60405180910390f35b61020260048036038101906101fd919061148d565b610728565b005b61021e60048036038101906102199190611379565b610a8c565b005b610228610be3565b6040516102359190611579565b60405180910390f35b61025860048036038101906102539190611460565b610c07565b6040516102699594939291906116fb565b60405180910390f35b61028c600480360381019061028791906112df565b610c4a565b005b6102a860048036038101906102a391906112df565b610d1c565b6040516102b692919061162b565b60405180910390f35b6102c7610dc8565b6040516102d4919061169b565b60405180910390f35b6102f760048036038101906102f291906112df565b610dce565b005b610313600480360381019061030e9190611460565b610ea0565b604051610322939291906115f4565b60405180910390f35b6103456004803603810190610340919061130c565b610eea565b005b61034f611027565b60405161035c9190611579565b60405180910390f35b61036d61104d565b60405161037a919061169b565b60405180910390f35b61039d60048036038101906103989190611460565b611053565b6040516103ac939291906116b6565b60405180910390f35b6000600b600083815260200190815260200160002060010154905080600760003373ffffffffffffffffffffffffffffffffffffffff1673ffffffffffffffffffffffffffffffffffffffff168152602001908152602001600020600101541015610455576040517f08c379a000000000000000000000000000000000000000000000000000000000815260040161044c9061167b565b60405180910390fd5b6000600160009054906101000a900473ffffffffffffffffffffffffffffffffffffffff1690508073ffffffffffffffffffffffffffffffffffffffff166323b872dd33600260009054906101000a900473ffffffffffffffffffffffffffffffffffffffff16670de0b6b3a7640000866104d09190611847565b6040518463ffffffff1660e01b81526004016104ee93929190611594565b602060405180830381600087803b15801561050857600080fd5b505af115801561051c573d6000803e3d6000fd5b505050506040513d601f19601f82011682018060405250810190610540919061134c565b5081600760003373ffffffffffffffffffffffffffffffffffffffff1673ffffffffffffffffffffffffffffffffffffffff168152602001908152602001600020600101600082825461059391906118a1565b92505081905550505050565b3373ffffffffffffffffffffffffffffffffffffffff1660008054906101000a900473ffffffffffffffffffffffffffffffffffffffff1673ffffffffffffffffffffffffffffffffffffffff161461062d576040517f08c379a00000000000000000000000000000000000000000000000000000000081526004016106249061165b565b60405180910390fd5b60016004600082825461064091906117c0565b9250508190555082600960006004548152602001908152602001600020600101908051906020019061067392919061118d565b508160096000600454815260200190815260200160002060020190805190602001906106a092919061118d565b508060096000600454815260200190815260200160002060000181905550505050565b600260009054906101000a900473ffffffffffffffffffffffffffffffffffffffff1681565b60086020528060005260406000206000915054906101000a900473ffffffffffffffffffffffffffffffffffffffff1681565b60065481565b60055481565b3373ffffffffffffffffffffffffffffffffffffffff1660008054906101000a900473ffffffffffffffffffffffffffffffffffffffff1673ffffffffffffffffffffffffffffffffffffffff16146107b6576040517f08c379a00000000000000000000000000000000000000000000000000000000081526004016107ad9061165b565b60405180910390fd5b6001600560008282546107c991906117c0565b9250508190555080600a600060055481526020019081526020016000206000018190555081600a600060055481526020019081526020016000206001018190555042600a60006005548152602001908152602001600020600201819055506001600a6000600554815260200190815260200160002060030160006101000a81548160ff02191690831515021790555060006008600083815260200190815260200160002060009054906101000a900473ffffffffffffffffffffffffffffffffffffffff169050600760008273ffffffffffffffffffffffffffffffffffffffff1673ffffffffffffffffffffffffffffffffffffffff16815260200190815260200160002060020160055490806001815401808255809150506001900390600052602060002001600090919091909150556000606460096000868152602001908152602001600020600001546109209190611816565b905080600a600060055481526020019081526020016000206004018190555080600760008473ffffffffffffffffffffffffffffffffffffffff1673ffffffffffffffffffffffffffffffffffffffff168152602001908152602001600020600101819055506000600160009054906101000a900473ffffffffffffffffffffffffffffffffffffffff1690508073ffffffffffffffffffffffffffffffffffffffff166340c10f1984670de0b6b3a7640000856109de9190611847565b6040518363ffffffff1660e01b81526004016109fb9291906115cb565b602060405180830381600087803b158015610a1557600080fd5b505af1158015610a29573d6000803e3d6000fd5b505050506040513d601f19601f82011682018060405250810190610a4d919061134c565b507f69779996a991d45551f764f92d74f416ae6ccbff1babfa7b555efb59cde59adf82604051610a7d919061169b565b60405180910390a15050505050565b3373ffffffffffffffffffffffffffffffffffffffff1660008054906101000a900473ffffffffffffffffffffffffffffffffffffffff1673ffffffffffffffffffffffffffffffffffffffff1614610b1a576040517f08c379a0000000000000000000000000000000000000000000000000000000008152600401610b119061165b565b60405180910390fd5b600160036000828254610b2d91906117c0565b9250508190555081600760008373ffffffffffffffffffffffffffffffffffffffff1673ffffffffffffffffffffffffffffffffffffffff1681526020019081526020016000206000019080519060200190610b8a92919061118d565b508060086000600354815260200190815260200160002060006101000a81548173ffffffffffffffffffffffffffffffffffffffff021916908373ffffffffffffffffffffffffffffffffffffffff1602179055505050565b60008054906101000a900473ffffffffffffffffffffffffffffffffffffffff1681565b600a6020528060005260406000206000915090508060000154908060010154908060020154908060030160009054906101000a900460ff16908060040154905085565b3373ffffffffffffffffffffffffffffffffffffffff1660008054906101000a900473ffffffffffffffffffffffffffffffffffffffff1673ffffffffffffffffffffffffffffffffffffffff1614610cd8576040517f08c379a0000000000000000000000000000000000000000000000000000000008152600401610ccf9061165b565b60405180910390fd5b80600260006101000a81548173ffffffffffffffffffffffffffffffffffffffff021916908373ffffffffffffffffffffffffffffffffffffffff16021790555050565b6007602052806000526040600020600091509050806000018054610d3f9061195f565b80601f0160208091040260200160405190810160405280929190818152602001828054610d6b9061195f565b8015610db85780601f10610d8d57610100808354040283529160200191610db8565b820191906000526020600020905b815481529060010190602001808311610d9b57829003601f168201915b5050505050908060010154905082565b60035481565b3373ffffffffffffffffffffffffffffffffffffffff1660008054906101000a900473ffffffffffffffffffffffffffffffffffffffff1673ffffffffffffffffffffffffffffffffffffffff1614610e5c576040517f08c379a0000000000000000000000000000000000000000000000000000000008152600401610e539061165b565b60405180910390fd5b80600160006101000a81548173ffffffffffffffffffffffffffffffffffffffff021916908373ffffffffffffffffffffffffffffffffffffffff16021790555050565b600b6020528060005260406000206000915090508060000160009054906101000a900473ffffffffffffffffffffffffffffffffffffffff16908060010154908060020154905083565b3373ffffffffffffffffffffffffffffffffffffffff1660008054906101000a900473ffffffffffffffffffffffffffffffffffffffff1673ffffffffffffffffffffffffffffffffffffffff1614610f78576040517f08c379a0000000000000000000000000000000000000000000000000000000008152600401610f6f9061165b565b60405180910390fd5b600160066000828254610f8b91906117c0565b9250508190555081600b6000600654815260200190815260200160002060000160006101000a81548173ffffffffffffffffffffffffffffffffffffffff021916908373ffffffffffffffffffffffffffffffffffffffff16021790555080600b600060065481526020019081526020016000206001018190555042600b60006006548152602001908152602001600020600201819055505050565b600160009054906101000a900473ffffffffffffffffffffffffffffffffffffffff1681565b60045481565b600960205280600052604060002060009150905080600001549080600101805461107c9061195f565b80601f01602080910402602001604051908101604052809291908181526020018280546110a89061195f565b80156110f55780601f106110ca576101008083540402835291602001916110f5565b820191906000526020600020905b8154815290600101906020018083116110d857829003601f168201915b50505050509080600201805461110a9061195f565b80601f01602080910402602001604051908101604052809291908181526020018280546111369061195f565b80156111835780601f1061115857610100808354040283529160200191611183565b820191906000526020600020905b81548152906001019060200180831161116657829003601f168201915b5050505050905083565b8280546111999061195f565b90600052602060002090601f0160209004810192826111bb5760008555611202565b82601f106111d457805160ff1916838001178555611202565b82800160010185558215611202579182015b828111156112015782518255916020019190600101906111e6565b5b50905061120f9190611213565b5090565b5b8082111561122c576000816000905550600101611214565b5090565b600061124361123e84611773565b61174e565b90508281526020810184848401111561125f5761125e611a83565b5b61126a84828561191d565b509392505050565b60008135905061128181611af5565b92915050565b60008151905061129681611b0c565b92915050565b600082601f8301126112b1576112b0611a7e565b5b81356112c1848260208601611230565b91505092915050565b6000813590506112d981611b23565b92915050565b6000602082840312156112f5576112f4611a8d565b5b600061130384828501611272565b91505092915050565b6000806040838503121561132357611322611a8d565b5b600061133185828601611272565b9250506020611342858286016112ca565b9150509250929050565b60006020828403121561136257611361611a8d565b5b600061137084828501611287565b91505092915050565b600080604083850312156113905761138f611a8d565b5b600083013567ffffffffffffffff8111156113ae576113ad611a88565b5b6113ba8582860161129c565b92505060206113cb85828601611272565b9150509250929050565b6000806000606084860312156113ee576113ed611a8d565b5b600084013567ffffffffffffffff81111561140c5761140b611a88565b5b6114188682870161129c565b935050602084013567ffffffffffffffff81111561143957611438611a88565b5b6114458682870161129c565b9250506040611456868287016112ca565b9150509250925092565b60006020828403121561147657611475611a8d565b5b6000611484848285016112ca565b91505092915050565b600080604083850312156114a4576114a3611a8d565b5b60006114b2858286016112ca565b92505060206114c3858286016112ca565b9150509250929050565b6114d6816118d5565b82525050565b6114e5816118e7565b82525050565b60006114f6826117a4565b61150081856117af565b935061151081856020860161192c565b61151981611a92565b840191505092915050565b60006115316016836117af565b915061153c82611aa3565b602082019050919050565b60006115546012836117af565b915061155f82611acc565b602082019050919050565b61157381611913565b82525050565b600060208201905061158e60008301846114cd565b92915050565b60006060820190506115a960008301866114cd565b6115b660208301856114cd565b6115c3604083018461156a565b949350505050565b60006040820190506115e060008301856114cd565b6115ed602083018461156a565b9392505050565b600060608201905061160960008301866114cd565b611616602083018561156a565b611623604083018461156a565b949350505050565b6000604082019050818103600083015261164581856114eb565b9050611654602083018461156a565b9392505050565b6000602082019050818103600083015261167481611524565b9050919050565b6000602082019050818103600083015261169481611547565b9050919050565b60006020820190506116b0600083018461156a565b92915050565b60006060820190506116cb600083018661156a565b81810360208301526116dd81856114eb565b905081810360408301526116f181846114eb565b9050949350505050565b600060a082019050611710600083018861156a565b61171d602083018761156a565b61172a604083018661156a565b61173760608301856114dc565b611744608083018461156a565b9695505050505050565b6000611758611769565b90506117648282611991565b919050565b6000604051905090565b600067ffffffffffffffff82111561178e5761178d611a4f565b5b61179782611a92565b9050602081019050919050565b600081519050919050565b600082825260208201905092915050565b60006117cb82611913565b91506117d683611913565b9250827fffffffffffffffffffffffffffffffffffffffffffffffffffffffffffffffff0382111561180b5761180a6119c2565b5b828201905092915050565b600061182182611913565b915061182c83611913565b92508261183c5761183b6119f1565b5b828204905092915050565b600061185282611913565b915061185d83611913565b9250817fffffffffffffffffffffffffffffffffffffffffffffffffffffffffffffffff0483118215151615611896576118956119c2565b5b828202905092915050565b60006118ac82611913565b91506118b783611913565b9250828210156118ca576118c96119c2565b5b828203905092915050565b60006118e0826118f3565b9050919050565b60008115159050919050565b600073ffffffffffffffffffffffffffffffffffffffff82169050919050565b6000819050919050565b82818337600083830152505050565b60005b8381101561194a57808201518184015260208101905061192f565b83811115611959576000848401525b50505050565b6000600282049050600182168061197757607f821691505b6020821081141561198b5761198a611a20565b5b50919050565b61199a82611a92565b810181811067ffffffffffffffff821117156119b9576119b8611a4f565b5b80604052505050565b7f4e487b7100000000000000000000000000000000000000000000000000000000600052601160045260246000fd5b7f4e487b7100000000000000000000000000000000000000000000000000000000600052601260045260246000fd5b7f4e487b7100000000000000000000000000000000000000000000000000000000600052602260045260246000fd5b7f4e487b7100000000000000000000000000000000000000000000000000000000600052604160045260246000fd5b600080fd5b600080fd5b600080fd5b600080fd5b6000601f19601f8301169050919050565b7f4f6e6c79206f776e65722063616e20646f207468697300000000000000000000600082015250565b7f4e6f7420656e6f7567687420746f6b656e730000000000000000000000000000600082015250565b611afe816118d5565b8114611b0957600080fd5b50565b611b15816118e7565b8114611b2057600080fd5b50565b611b2c81611913565b8114611b3757600080fd5b5056fea26469706673582212208d29ed1d682fd447922926df2ba2805890d33a7234ecaa1f2e9458fd4145135864736f6c63430008050033",
  "immutableReferences": {},
  "source": "pragma solidity ^0.8.5;\n\nimport \"./IERC20.sol\";\n\ncontract BuyCars {\n    \n    \n    address public owner;\n    address public bonusTokenAddress;\n    address public accounter;\n    \n    event createOrderEvent(uint _tokens);\n    \n    constructor(address _btkaddr) {\n        owner = msg.sender;\n        bonusTokenAddress = _btkaddr;\n    }\n    \n    \n    modifier onlyOwner() {\n        require(owner == msg.sender, \"Only owner can do this\");\n        _;\n    }\n    \n    \n    uint public UserID;\n    uint public CarID;\n    uint public OrderID;\n    uint public ServicesOrderID;\n    \n    struct car {\n        uint price;\n        string brand;\n        string model;\n    }\n    \n    struct order {\n        uint userID;\n        uint carID;\n        uint date;\n        bool active;\n        uint tokens;\n    }\n\n    struct serviceOrder {\n        address userAddress;\n        uint price;\n        uint date;\n    }\n    \n    struct user {\n        string name;\n        uint tokens;\n        uint[] orders;\n    }\n    \n    mapping(address => user) public Users;\n    mapping(uint => address) public UserIDs;\n    mapping(uint => car) public Cars;\n    mapping(uint => order) public Orders;\n    mapping(uint => serviceOrder) public ServicesOrders;\n    \n    \n    //FUNCTIONS\n    \n    //Function for adding users to smart contract\n    \n    function setBonusTokenAddress(address _address) public onlyOwner {\n        bonusTokenAddress = _address;\n    }\n\n    function addAccounter (address _address) public onlyOwner {\n        accounter = _address;\n    }\n    \n    \n    function addUser(string memory _name, address _userAddress) public onlyOwner {\n        UserID += 1;\n        Users[_userAddress].name = _name;\n        UserIDs[UserID] = _userAddress;\n    }\n    \n    function addCar(string memory _brand, string memory _model, uint _price) public onlyOwner {\n        CarID += 1;\n        Cars[CarID].brand = _brand;\n        Cars[CarID].model = _model;\n        Cars[CarID].price = _price;\n    }\n    \n    \n    function createOrder(uint _car_id, uint _user_id) public onlyOwner {\n        OrderID += 1;\n        Orders[OrderID].userID = _user_id;\n        Orders[OrderID].carID = _car_id;\n        Orders[OrderID].date = block.timestamp;\n        Orders[OrderID].active = true;\n        address _user_address = UserIDs[_user_id];\n        Users[_user_address].orders.push(OrderID);\n        uint _tokens = Cars[_car_id].price/100; \n        Orders[OrderID].tokens = _tokens;\n        Users[_user_address].tokens = _tokens;\n        IERC20 _bonusToken = IERC20(bonusTokenAddress);\n        _bonusToken.mint(_user_address, _tokens * 10 ** 18);\n        emit createOrderEvent(_tokens);  \n    }\n\n    function createServiceOrder (address _address, uint _price) public onlyOwner {\n        ServicesOrderID += 1;\n        ServicesOrders[ServicesOrderID].userAddress = _address;\n        ServicesOrders[ServicesOrderID].price = _price;\n        ServicesOrders[ServicesOrderID].date = block.timestamp;\n    }\n\n    /*\n    function checkUserTokens(uint _order_id, uint _user_id) public onlyOwner {\n\n    }\n    */\n\n    function payByTokens(uint _servOrder_id) public {\n        uint _serviceAmount = ServicesOrders[_servOrder_id].price;\n        require(Users[msg.sender].tokens >= _serviceAmount, \"Not enought tokens\");\n        IERC20 _bon_token = IERC20(bonusTokenAddress);\n        _bon_token.transferFrom(msg.sender, accounter, _serviceAmount * 10 ** 18);\n        Users[msg.sender].tokens -= _serviceAmount;\n    }\n\n    \n    \n    \n    \n}",
  "sourcePath": "/Users/pro/Development/blockchain/solidity_course/solidity_cars/contracts/BuyCars.sol",
  "compiler": {
    "name": "solc",
    "version": "0.8.5+commit.a4f2e591.Emscripten.clang"
  },
  "schemaVersion": "3.3.3",
  "updatedAt": "2021-07-17T09:43:32.457Z",
  "networkType": "ethereum",
  "devdoc": {
    "kind": "dev",
    "methods": {},
    "version": 1
  },
  "userdoc": {
    "kind": "user",
    "methods": {},
    "version": 1
  }
}