{
  "contractName": "CarSalonNFT",
  "abi": [
    {
      "inputs": [],
      "stateMutability": "nonpayable",
      "type": "constructor"
    },
    {
      "anonymous": false,
      "inputs": [
        {
          "indexed": true,
          "internalType": "address",
          "name": "owner",
          "type": "address"
        },
        {
          "indexed": true,
          "internalType": "address",
          "name": "approved",
          "type": "address"
        },
        {
          "indexed": true,
          "internalType": "uint256",
          "name": "tokenId",
          "type": "uint256"
        }
      ],
      "name": "Approval",
      "type": "event"
    },
    {
      "anonymous": false,
      "inputs": [
        {
          "indexed": true,
          "internalType": "address",
          "name": "owner",
          "type": "address"
        },
        {
          "indexed": true,
          "internalType": "address",
          "name": "operator",
          "type": "address"
        },
        {
          "indexed": false,
          "internalType": "bool",
          "name": "approved",
          "type": "bool"
        }
      ],
      "name": "ApprovalForAll",
      "type": "event"
    },
    {
      "anonymous": false,
      "inputs": [
        {
          "indexed": true,
          "internalType": "address",
          "name": "from",
          "type": "address"
        },
        {
          "indexed": true,
          "internalType": "address",
          "name": "to",
          "type": "address"
        },
        {
          "indexed": true,
          "internalType": "uint256",
          "name": "tokenId",
          "type": "uint256"
        }
      ],
      "name": "Transfer",
      "type": "event"
    },
    {
      "inputs": [
        {
          "internalType": "address",
          "name": "to",
          "type": "address"
        },
        {
          "internalType": "uint256",
          "name": "tokenId",
          "type": "uint256"
        }
      ],
      "name": "approve",
      "outputs": [],
      "stateMutability": "nonpayable",
      "type": "function"
    },
    {
      "inputs": [
        {
          "internalType": "address",
          "name": "owner",
          "type": "address"
        }
      ],
      "name": "balanceOf",
      "outputs": [
        {
          "internalType": "uint256",
          "name": "",
          "type": "uint256"
        }
      ],
      "stateMutability": "view",
      "type": "function",
      "constant": true
    },
    {
      "inputs": [
        {
          "internalType": "uint256",
          "name": "tokenId",
          "type": "uint256"
        }
      ],
      "name": "getApproved",
      "outputs": [
        {
          "internalType": "address",
          "name": "",
          "type": "address"
        }
      ],
      "stateMutability": "view",
      "type": "function",
      "constant": true
    },
    {
      "inputs": [
        {
          "internalType": "address",
          "name": "owner",
          "type": "address"
        },
        {
          "internalType": "address",
          "name": "operator",
          "type": "address"
        }
      ],
      "name": "isApprovedForAll",
      "outputs": [
        {
          "internalType": "bool",
          "name": "",
          "type": "bool"
        }
      ],
      "stateMutability": "view",
      "type": "function",
      "constant": true
    },
    {
      "inputs": [],
      "name": "name",
      "outputs": [
        {
          "internalType": "string",
          "name": "",
          "type": "string"
        }
      ],
      "stateMutability": "view",
      "type": "function",
      "constant": true
    },
    {
      "inputs": [
        {
          "internalType": "uint256",
          "name": "tokenId",
          "type": "uint256"
        }
      ],
      "name": "ownerOf",
      "outputs": [
        {
          "internalType": "address",
          "name": "",
          "type": "address"
        }
      ],
      "stateMutability": "view",
      "type": "function",
      "constant": true
    },
    {
      "inputs": [
        {
          "internalType": "address",
          "name": "from",
          "type": "address"
        },
        {
          "internalType": "address",
          "name": "to",
          "type": "address"
        },
        {
          "internalType": "uint256",
          "name": "tokenId",
          "type": "uint256"
        }
      ],
      "name": "safeTransferFrom",
      "outputs": [],
      "stateMutability": "nonpayable",
      "type": "function"
    },
    {
      "inputs": [
        {
          "internalType": "address",
          "name": "from",
          "type": "address"
        },
        {
          "internalType": "address",
          "name": "to",
          "type": "address"
        },
        {
          "internalType": "uint256",
          "name": "tokenId",
          "type": "uint256"
        },
        {
          "internalType": "bytes",
          "name": "_data",
          "type": "bytes"
        }
      ],
      "name": "safeTransferFrom",
      "outputs": [],
      "stateMutability": "nonpayable",
      "type": "function"
    },
    {
      "inputs": [
        {
          "internalType": "address",
          "name": "operator",
          "type": "address"
        },
        {
          "internalType": "bool",
          "name": "approved",
          "type": "bool"
        }
      ],
      "name": "setApprovalForAll",
      "outputs": [],
      "stateMutability": "nonpayable",
      "type": "function"
    },
    {
      "inputs": [
        {
          "internalType": "bytes4",
          "name": "interfaceId",
          "type": "bytes4"
        }
      ],
      "name": "supportsInterface",
      "outputs": [
        {
          "internalType": "bool",
          "name": "",
          "type": "bool"
        }
      ],
      "stateMutability": "view",
      "type": "function",
      "constant": true
    },
    {
      "inputs": [],
      "name": "symbol",
      "outputs": [
        {
          "internalType": "string",
          "name": "",
          "type": "string"
        }
      ],
      "stateMutability": "view",
      "type": "function",
      "constant": true
    },
    {
      "inputs": [],
      "name": "tokenIDCounter",
      "outputs": [
        {
          "internalType": "uint256",
          "name": "",
          "type": "uint256"
        }
      ],
      "stateMutability": "view",
      "type": "function",
      "constant": true
    },
    {
      "inputs": [
        {
          "internalType": "uint256",
          "name": "tokenId",
          "type": "uint256"
        }
      ],
      "name": "tokenURI",
      "outputs": [
        {
          "internalType": "string",
          "name": "",
          "type": "string"
        }
      ],
      "stateMutability": "view",
      "type": "function",
      "constant": true
    },
    {
      "inputs": [
        {
          "internalType": "address",
          "name": "from",
          "type": "address"
        },
        {
          "internalType": "address",
          "name": "to",
          "type": "address"
        },
        {
          "internalType": "uint256",
          "name": "tokenId",
          "type": "uint256"
        }
      ],
      "name": "transferFrom",
      "outputs": [],
      "stateMutability": "nonpayable",
      "type": "function"
    },
    {
      "inputs": [
        {
          "internalType": "string",
          "name": "_tokenURI",
          "type": "string"
        }
      ],
      "name": "createClientCardNFT",
      "outputs": [
        {
          "internalType": "uint256",
          "name": "",
          "type": "uint256"
        }
      ],
      "stateMutability": "nonpayable",
      "type": "function"
    }
  ],
  "bytecode": "0x60806040523480156200001157600080fd5b506040518060400160405280600c81526020017f43617253616c6f6e204e465400000000000000000000000000000000000000008152506040518060400160405280600581526020017f43534e4654000000000000000000000000000000000000000000000000000000815250816000908051906020019062000096929190620000c0565b508060019080519060200190620000af929190620000c0565b5050506001600781905550620001d5565b828054620000ce9062000170565b90600052602060002090601f016020900481019282620000f257600085556200013e565b82601f106200010d57805160ff19168380011785556200013e565b828001600101855582156200013e579182015b828111156200013d57825182559160200191906001019062000120565b5b5090506200014d919062000151565b5090565b5b808211156200016c57600081600090555060010162000152565b5090565b600060028204905060018216806200018957607f821691505b60208210811415620001a0576200019f620001a6565b5b50919050565b7f4e487b7100000000000000000000000000000000000000000000000000000000600052602260045260246000fd5b612c1580620001e56000396000f3fe608060405234801561001057600080fd5b50600436106100f55760003560e01c80636352211e11610097578063a22cb46511610066578063a22cb46514610298578063b88d4fde146102b4578063c87b56dd146102d0578063e985e9c514610300576100f5565b80636352211e146101fc5780636deb47301461022c57806370a082311461024a57806395d89b411461027a576100f5565b8063095ea7b3116100d3578063095ea7b31461017857806323b872dd146101945780632f145571146101b057806342842e0e146101e0576100f5565b806301ffc9a7146100fa57806306fdde031461012a578063081812fc14610148575b600080fd5b610114600480360381019061010f9190611c2a565b610330565b6040516101219190612085565b60405180910390f35b610132610412565b60405161013f91906120a0565b60405180910390f35b610162600480360381019061015d9190611ccd565b6104a4565b60405161016f919061201e565b60405180910390f35b610192600480360381019061018d9190611bea565b610529565b005b6101ae60048036038101906101a99190611ad4565b610641565b005b6101ca60048036038101906101c59190611c84565b6106a1565b6040516101d791906122c2565b60405180910390f35b6101fa60048036038101906101f59190611ad4565b6106da565b005b61021660048036038101906102119190611ccd565b6106fa565b604051610223919061201e565b60405180910390f35b6102346107ac565b60405161024191906122c2565b60405180910390f35b610264600480360381019061025f9190611a67565b6107b2565b60405161027191906122c2565b60405180910390f35b61028261086a565b60405161028f91906120a0565b60405180910390f35b6102b260048036038101906102ad9190611baa565b6108fc565b005b6102ce60048036038101906102c99190611b27565b610a7d565b005b6102ea60048036038101906102e59190611ccd565b610adf565b6040516102f791906120a0565b60405180910390f35b61031a60048036038101906103159190611a94565b610c31565b6040516103279190612085565b60405180910390f35b60007f80ac58cd000000000000000000000000000000000000000000000000000000007bffffffffffffffffffffffffffffffffffffffffffffffffffffffff1916827bffffffffffffffffffffffffffffffffffffffffffffffffffffffff191614806103fb57507f5b5e139f000000000000000000000000000000000000000000000000000000007bffffffffffffffffffffffffffffffffffffffffffffffffffffffff1916827bffffffffffffffffffffffffffffffffffffffffffffffffffffffff1916145b8061040b575061040a82610cc5565b5b9050919050565b60606000805461042190612518565b80601f016020809104026020016040519081016040528092919081815260200182805461044d90612518565b801561049a5780601f1061046f5761010080835404028352916020019161049a565b820191906000526020600020905b81548152906001019060200180831161047d57829003601f168201915b5050505050905090565b60006104af82610d2f565b6104ee576040517f08c379a00000000000000000000000000000000000000000000000000000000081526004016104e590612222565b60405180910390fd5b6004600083815260200190815260200160002060009054906101000a900473ffffffffffffffffffffffffffffffffffffffff169050919050565b6000610534826106fa565b90508073ffffffffffffffffffffffffffffffffffffffff168373ffffffffffffffffffffffffffffffffffffffff1614156105a5576040517f08c379a000000000000000000000000000000000000000000000000000000000815260040161059c90612282565b60405180910390fd5b8073ffffffffffffffffffffffffffffffffffffffff166105c4610d9b565b73ffffffffffffffffffffffffffffffffffffffff1614806105f357506105f2816105ed610d9b565b610c31565b5b610632576040517f08c379a000000000000000000000000000000000000000000000000000000000815260040161062990612162565b60405180910390fd5b61063c8383610da3565b505050565b61065261064c610d9b565b82610e5c565b610691576040517f08c379a0000000000000000000000000000000000000000000000000000000008152600401610688906122a2565b60405180910390fd5b61069c838383610f3a565b505050565b60006106af33600754611196565b6106bb600754836111b4565b6001600760008282546106ce91906123a7565b92505081905550919050565b6106f583838360405180602001604052806000815250610a7d565b505050565b6000806002600084815260200190815260200160002060009054906101000a900473ffffffffffffffffffffffffffffffffffffffff169050600073ffffffffffffffffffffffffffffffffffffffff168173ffffffffffffffffffffffffffffffffffffffff1614156107a3576040517f08c379a000000000000000000000000000000000000000000000000000000000815260040161079a906121a2565b60405180910390fd5b80915050919050565b60075481565b60008073ffffffffffffffffffffffffffffffffffffffff168273ffffffffffffffffffffffffffffffffffffffff161415610823576040517f08c379a000000000000000000000000000000000000000000000000000000000815260040161081a90612182565b60405180910390fd5b600360008373ffffffffffffffffffffffffffffffffffffffff1673ffffffffffffffffffffffffffffffffffffffff168152602001908152602001600020549050919050565b60606001805461087990612518565b80601f01602080910402602001604051908101604052809291908181526020018280546108a590612518565b80156108f25780601f106108c7576101008083540402835291602001916108f2565b820191906000526020600020905b8154815290600101906020018083116108d557829003601f168201915b5050505050905090565b610904610d9b565b73ffffffffffffffffffffffffffffffffffffffff168273ffffffffffffffffffffffffffffffffffffffff161415610972576040517f08c379a000000000000000000000000000000000000000000000000000000000815260040161096990612122565b60405180910390fd5b806005600061097f610d9b565b73ffffffffffffffffffffffffffffffffffffffff1673ffffffffffffffffffffffffffffffffffffffff16815260200190815260200160002060008473ffffffffffffffffffffffffffffffffffffffff1673ffffffffffffffffffffffffffffffffffffffff16815260200190815260200160002060006101000a81548160ff0219169083151502179055508173ffffffffffffffffffffffffffffffffffffffff16610a2c610d9b565b73ffffffffffffffffffffffffffffffffffffffff167f17307eab39ab6107e8899845ad3d59bd9653f200f220920489ca2b5937696c3183604051610a719190612085565b60405180910390a35050565b610a8e610a88610d9b565b83610e5c565b610acd576040517f08c379a0000000000000000000000000000000000000000000000000000000008152600401610ac4906122a2565b60405180910390fd5b610ad984848484611228565b50505050565b6060610aea82610d2f565b610b29576040517f08c379a0000000000000000000000000000000000000000000000000000000008152600401610b2090612202565b60405180910390fd5b6000600660008481526020019081526020016000208054610b4990612518565b80601f0160208091040260200160405190810160405280929190818152602001828054610b7590612518565b8015610bc25780601f10610b9757610100808354040283529160200191610bc2565b820191906000526020600020905b815481529060010190602001808311610ba557829003601f168201915b505050505090506000610bd3611284565b9050600081511415610be9578192505050610c2c565b600082511115610c1e578082604051602001610c06929190611ffa565b60405160208183030381529060405292505050610c2c565b610c278461129b565b925050505b919050565b6000600560008473ffffffffffffffffffffffffffffffffffffffff1673ffffffffffffffffffffffffffffffffffffffff16815260200190815260200160002060008373ffffffffffffffffffffffffffffffffffffffff1673ffffffffffffffffffffffffffffffffffffffff16815260200190815260200160002060009054906101000a900460ff16905092915050565b60007f01ffc9a7000000000000000000000000000000000000000000000000000000007bffffffffffffffffffffffffffffffffffffffffffffffffffffffff1916827bffffffffffffffffffffffffffffffffffffffffffffffffffffffff1916149050919050565b60008073ffffffffffffffffffffffffffffffffffffffff166002600084815260200190815260200160002060009054906101000a900473ffffffffffffffffffffffffffffffffffffffff1673ffffffffffffffffffffffffffffffffffffffff1614159050919050565b600033905090565b816004600083815260200190815260200160002060006101000a81548173ffffffffffffffffffffffffffffffffffffffff021916908373ffffffffffffffffffffffffffffffffffffffff160217905550808273ffffffffffffffffffffffffffffffffffffffff16610e16836106fa565b73ffffffffffffffffffffffffffffffffffffffff167f8c5be1e5ebec7d5bd14f71427d1e84f3dd0314c0f7b2291e5b200ac8c7c3b92560405160405180910390a45050565b6000610e6782610d2f565b610ea6576040517f08c379a0000000000000000000000000000000000000000000000000000000008152600401610e9d90612142565b60405180910390fd5b6000610eb1836106fa565b90508073ffffffffffffffffffffffffffffffffffffffff168473ffffffffffffffffffffffffffffffffffffffff161480610f2057508373ffffffffffffffffffffffffffffffffffffffff16610f08846104a4565b73ffffffffffffffffffffffffffffffffffffffff16145b80610f315750610f308185610c31565b5b91505092915050565b8273ffffffffffffffffffffffffffffffffffffffff16610f5a826106fa565b73ffffffffffffffffffffffffffffffffffffffff1614610fb0576040517f08c379a0000000000000000000000000000000000000000000000000000000008152600401610fa790612242565b60405180910390fd5b600073ffffffffffffffffffffffffffffffffffffffff168273ffffffffffffffffffffffffffffffffffffffff161415611020576040517f08c379a000000000000000000000000000000000000000000000000000000000815260040161101790612102565b60405180910390fd5b61102b838383611342565b611036600082610da3565b6001600360008573ffffffffffffffffffffffffffffffffffffffff1673ffffffffffffffffffffffffffffffffffffffff1681526020019081526020016000206000828254611086919061242e565b925050819055506001600360008473ffffffffffffffffffffffffffffffffffffffff1673ffffffffffffffffffffffffffffffffffffffff16815260200190815260200160002060008282546110dd91906123a7565b92505081905550816002600083815260200190815260200160002060006101000a81548173ffffffffffffffffffffffffffffffffffffffff021916908373ffffffffffffffffffffffffffffffffffffffff160217905550808273ffffffffffffffffffffffffffffffffffffffff168473ffffffffffffffffffffffffffffffffffffffff167fddf252ad1be2c89b69c2b068fc378daa952ba7f163c4a11628f55a4df523b3ef60405160405180910390a4505050565b6111b0828260405180602001604052806000815250611347565b5050565b6111bd82610d2f565b6111fc576040517f08c379a00000000000000000000000000000000000000000000000000000000081526004016111f3906121c2565b60405180910390fd5b8060066000848152602001908152602001600020908051906020019061122392919061187b565b505050565b611233848484610f3a565b61123f848484846113a2565b61127e576040517f08c379a0000000000000000000000000000000000000000000000000000000008152600401611275906120c2565b60405180910390fd5b50505050565b606060405180602001604052806000815250905090565b60606112a682610d2f565b6112e5576040517f08c379a00000000000000000000000000000000000000000000000000000000081526004016112dc90612262565b60405180910390fd5b60006112ef611284565b9050600081511161130f576040518060200160405280600081525061133a565b8061131984611539565b60405160200161132a929190611ffa565b6040516020818303038152906040525b915050919050565b505050565b611351838361169a565b61135e60008484846113a2565b61139d576040517f08c379a0000000000000000000000000000000000000000000000000000000008152600401611394906120c2565b60405180910390fd5b505050565b60006113c38473ffffffffffffffffffffffffffffffffffffffff16611868565b1561152c578373ffffffffffffffffffffffffffffffffffffffff1663150b7a026113ec610d9b565b8786866040518563ffffffff1660e01b815260040161140e9493929190612039565b602060405180830381600087803b15801561142857600080fd5b505af192505050801561145957506040513d601f19601f820116820180604052508101906114569190611c57565b60015b6114dc573d8060008114611489576040519150601f19603f3d011682016040523d82523d6000602084013e61148e565b606091505b506000815114156114d4576040517f08c379a00000000000000000000000000000000000000000000000000000000081526004016114cb906120c2565b60405180910390fd5b805181602001fd5b63150b7a0260e01b7bffffffffffffffffffffffffffffffffffffffffffffffffffffffff1916817bffffffffffffffffffffffffffffffffffffffffffffffffffffffff191614915050611531565b600190505b949350505050565b60606000821415611581576040518060400160405280600181526020017f30000000000000000000000000000000000000000000000000000000000000008152509050611695565b600082905060005b600082146115b357808061159c9061257b565b915050600a826115ac91906123fd565b9150611589565b60008167ffffffffffffffff8111156115cf576115ce6126b1565b5b6040519080825280601f01601f1916602001820160405280156116015781602001600182028036833780820191505090505b5090505b6000851461168e5760018261161a919061242e565b9150600a8561162991906125c4565b603061163591906123a7565b60f81b81838151811061164b5761164a612682565b5b60200101907effffffffffffffffffffffffffffffffffffffffffffffffffffffffffffff1916908160001a905350600a8561168791906123fd565b9450611605565b8093505050505b919050565b600073ffffffffffffffffffffffffffffffffffffffff168273ffffffffffffffffffffffffffffffffffffffff16141561170a576040517f08c379a0000000000000000000000000000000000000000000000000000000008152600401611701906121e2565b60405180910390fd5b61171381610d2f565b15611753576040517f08c379a000000000000000000000000000000000000000000000000000000000815260040161174a906120e2565b60405180910390fd5b61175f60008383611342565b6001600360008473ffffffffffffffffffffffffffffffffffffffff1673ffffffffffffffffffffffffffffffffffffffff16815260200190815260200160002060008282546117af91906123a7565b92505081905550816002600083815260200190815260200160002060006101000a81548173ffffffffffffffffffffffffffffffffffffffff021916908373ffffffffffffffffffffffffffffffffffffffff160217905550808273ffffffffffffffffffffffffffffffffffffffff16600073ffffffffffffffffffffffffffffffffffffffff167fddf252ad1be2c89b69c2b068fc378daa952ba7f163c4a11628f55a4df523b3ef60405160405180910390a45050565b600080823b905060008111915050919050565b82805461188790612518565b90600052602060002090601f0160209004810192826118a957600085556118f0565b82601f106118c257805160ff19168380011785556118f0565b828001600101855582156118f0579182015b828111156118ef5782518255916020019190600101906118d4565b5b5090506118fd9190611901565b5090565b5b8082111561191a576000816000905550600101611902565b5090565b600061193161192c84612302565b6122dd565b90508281526020810184848401111561194d5761194c6126e5565b5b6119588482856124d6565b509392505050565b600061197361196e84612333565b6122dd565b90508281526020810184848401111561198f5761198e6126e5565b5b61199a8482856124d6565b509392505050565b6000813590506119b181612b83565b92915050565b6000813590506119c681612b9a565b92915050565b6000813590506119db81612bb1565b92915050565b6000815190506119f081612bb1565b92915050565b600082601f830112611a0b57611a0a6126e0565b5b8135611a1b84826020860161191e565b91505092915050565b600082601f830112611a3957611a386126e0565b5b8135611a49848260208601611960565b91505092915050565b600081359050611a6181612bc8565b92915050565b600060208284031215611a7d57611a7c6126ef565b5b6000611a8b848285016119a2565b91505092915050565b60008060408385031215611aab57611aaa6126ef565b5b6000611ab9858286016119a2565b9250506020611aca858286016119a2565b9150509250929050565b600080600060608486031215611aed57611aec6126ef565b5b6000611afb868287016119a2565b9350506020611b0c868287016119a2565b9250506040611b1d86828701611a52565b9150509250925092565b60008060008060808587031215611b4157611b406126ef565b5b6000611b4f878288016119a2565b9450506020611b60878288016119a2565b9350506040611b7187828801611a52565b925050606085013567ffffffffffffffff811115611b9257611b916126ea565b5b611b9e878288016119f6565b91505092959194509250565b60008060408385031215611bc157611bc06126ef565b5b6000611bcf858286016119a2565b9250506020611be0858286016119b7565b9150509250929050565b60008060408385031215611c0157611c006126ef565b5b6000611c0f858286016119a2565b9250506020611c2085828601611a52565b9150509250929050565b600060208284031215611c4057611c3f6126ef565b5b6000611c4e848285016119cc565b91505092915050565b600060208284031215611c6d57611c6c6126ef565b5b6000611c7b848285016119e1565b91505092915050565b600060208284031215611c9a57611c996126ef565b5b600082013567ffffffffffffffff811115611cb857611cb76126ea565b5b611cc484828501611a24565b91505092915050565b600060208284031215611ce357611ce26126ef565b5b6000611cf184828501611a52565b91505092915050565b611d0381612462565b82525050565b611d1281612474565b82525050565b6000611d2382612364565b611d2d818561237a565b9350611d3d8185602086016124e5565b611d46816126f4565b840191505092915050565b6000611d5c8261236f565b611d66818561238b565b9350611d768185602086016124e5565b611d7f816126f4565b840191505092915050565b6000611d958261236f565b611d9f818561239c565b9350611daf8185602086016124e5565b80840191505092915050565b6000611dc860328361238b565b9150611dd382612705565b604082019050919050565b6000611deb601c8361238b565b9150611df682612754565b602082019050919050565b6000611e0e60248361238b565b9150611e198261277d565b604082019050919050565b6000611e3160198361238b565b9150611e3c826127cc565b602082019050919050565b6000611e54602c8361238b565b9150611e5f826127f5565b604082019050919050565b6000611e7760388361238b565b9150611e8282612844565b604082019050919050565b6000611e9a602a8361238b565b9150611ea582612893565b604082019050919050565b6000611ebd60298361238b565b9150611ec8826128e2565b604082019050919050565b6000611ee0602e8361238b565b9150611eeb82612931565b604082019050919050565b6000611f0360208361238b565b9150611f0e82612980565b602082019050919050565b6000611f2660318361238b565b9150611f31826129a9565b604082019050919050565b6000611f49602c8361238b565b9150611f54826129f8565b604082019050919050565b6000611f6c60298361238b565b9150611f7782612a47565b604082019050919050565b6000611f8f602f8361238b565b9150611f9a82612a96565b604082019050919050565b6000611fb260218361238b565b9150611fbd82612ae5565b604082019050919050565b6000611fd560318361238b565b9150611fe082612b34565b604082019050919050565b611ff4816124cc565b82525050565b60006120068285611d8a565b91506120128284611d8a565b91508190509392505050565b60006020820190506120336000830184611cfa565b92915050565b600060808201905061204e6000830187611cfa565b61205b6020830186611cfa565b6120686040830185611feb565b818103606083015261207a8184611d18565b905095945050505050565b600060208201905061209a6000830184611d09565b92915050565b600060208201905081810360008301526120ba8184611d51565b905092915050565b600060208201905081810360008301526120db81611dbb565b9050919050565b600060208201905081810360008301526120fb81611dde565b9050919050565b6000602082019050818103600083015261211b81611e01565b9050919050565b6000602082019050818103600083015261213b81611e24565b9050919050565b6000602082019050818103600083015261215b81611e47565b9050919050565b6000602082019050818103600083015261217b81611e6a565b9050919050565b6000602082019050818103600083015261219b81611e8d565b9050919050565b600060208201905081810360008301526121bb81611eb0565b9050919050565b600060208201905081810360008301526121db81611ed3565b9050919050565b600060208201905081810360008301526121fb81611ef6565b9050919050565b6000602082019050818103600083015261221b81611f19565b9050919050565b6000602082019050818103600083015261223b81611f3c565b9050919050565b6000602082019050818103600083015261225b81611f5f565b9050919050565b6000602082019050818103600083015261227b81611f82565b9050919050565b6000602082019050818103600083015261229b81611fa5565b9050919050565b600060208201905081810360008301526122bb81611fc8565b9050919050565b60006020820190506122d76000830184611feb565b92915050565b60006122e76122f8565b90506122f3828261254a565b919050565b6000604051905090565b600067ffffffffffffffff82111561231d5761231c6126b1565b5b612326826126f4565b9050602081019050919050565b600067ffffffffffffffff82111561234e5761234d6126b1565b5b612357826126f4565b9050602081019050919050565b600081519050919050565b600081519050919050565b600082825260208201905092915050565b600082825260208201905092915050565b600081905092915050565b60006123b2826124cc565b91506123bd836124cc565b9250827fffffffffffffffffffffffffffffffffffffffffffffffffffffffffffffffff038211156123f2576123f16125f5565b5b828201905092915050565b6000612408826124cc565b9150612413836124cc565b92508261242357612422612624565b5b828204905092915050565b6000612439826124cc565b9150612444836124cc565b925082821015612457576124566125f5565b5b828203905092915050565b600061246d826124ac565b9050919050565b60008115159050919050565b60007fffffffff0000000000000000000000000000000000000000000000000000000082169050919050565b600073ffffffffffffffffffffffffffffffffffffffff82169050919050565b6000819050919050565b82818337600083830152505050565b60005b838110156125035780820151818401526020810190506124e8565b83811115612512576000848401525b50505050565b6000600282049050600182168061253057607f821691505b6020821081141561254457612543612653565b5b50919050565b612553826126f4565b810181811067ffffffffffffffff82111715612572576125716126b1565b5b80604052505050565b6000612586826124cc565b91507fffffffffffffffffffffffffffffffffffffffffffffffffffffffffffffffff8214156125b9576125b86125f5565b5b600182019050919050565b60006125cf826124cc565b91506125da836124cc565b9250826125ea576125e9612624565b5b828206905092915050565b7f4e487b7100000000000000000000000000000000000000000000000000000000600052601160045260246000fd5b7f4e487b7100000000000000000000000000000000000000000000000000000000600052601260045260246000fd5b7f4e487b7100000000000000000000000000000000000000000000000000000000600052602260045260246000fd5b7f4e487b7100000000000000000000000000000000000000000000000000000000600052603260045260246000fd5b7f4e487b7100000000000000000000000000000000000000000000000000000000600052604160045260246000fd5b600080fd5b600080fd5b600080fd5b600080fd5b6000601f19601f8301169050919050565b7f4552433732313a207472616e7366657220746f206e6f6e20455243373231526560008201527f63656976657220696d706c656d656e7465720000000000000000000000000000602082015250565b7f4552433732313a20746f6b656e20616c7265616479206d696e74656400000000600082015250565b7f4552433732313a207472616e7366657220746f20746865207a65726f2061646460008201527f7265737300000000000000000000000000000000000000000000000000000000602082015250565b7f4552433732313a20617070726f766520746f2063616c6c657200000000000000600082015250565b7f4552433732313a206f70657261746f7220717565727920666f72206e6f6e657860008201527f697374656e7420746f6b656e0000000000000000000000000000000000000000602082015250565b7f4552433732313a20617070726f76652063616c6c6572206973206e6f74206f7760008201527f6e6572206e6f7220617070726f76656420666f7220616c6c0000000000000000602082015250565b7f4552433732313a2062616c616e636520717565727920666f7220746865207a6560008201527f726f206164647265737300000000000000000000000000000000000000000000602082015250565b7f4552433732313a206f776e657220717565727920666f72206e6f6e657869737460008201527f656e7420746f6b656e0000000000000000000000000000000000000000000000602082015250565b7f45524337323155524953746f726167653a2055524920736574206f66206e6f6e60008201527f6578697374656e7420746f6b656e000000000000000000000000000000000000602082015250565b7f4552433732313a206d696e7420746f20746865207a65726f2061646472657373600082015250565b7f45524337323155524953746f726167653a2055524920717565727920666f722060008201527f6e6f6e6578697374656e7420746f6b656e000000000000000000000000000000602082015250565b7f4552433732313a20617070726f76656420717565727920666f72206e6f6e657860008201527f697374656e7420746f6b656e0000000000000000000000000000000000000000602082015250565b7f4552433732313a207472616e73666572206f6620746f6b656e2074686174206960008201527f73206e6f74206f776e0000000000000000000000000000000000000000000000602082015250565b7f4552433732314d657461646174613a2055524920717565727920666f72206e6f60008201527f6e6578697374656e7420746f6b656e0000000000000000000000000000000000602082015250565b7f4552433732313a20617070726f76616c20746f2063757272656e74206f776e6560008201527f7200000000000000000000000000000000000000000000000000000000000000602082015250565b7f4552433732313a207472616e736665722063616c6c6572206973206e6f74206f60008201527f776e6572206e6f7220617070726f766564000000000000000000000000000000602082015250565b612b8c81612462565b8114612b9757600080fd5b50565b612ba381612474565b8114612bae57600080fd5b50565b612bba81612480565b8114612bc557600080fd5b50565b612bd1816124cc565b8114612bdc57600080fd5b5056fea26469706673582212204580745cfed49078065431a0fbe3fb638c08d41d761657c84123eb5f2bc027fa64736f6c63430008050033",
  "immutableReferences": {},
  "source": "pragma solidity  ^0.8.5;\n\nimport \"@openzeppelin/contracts/token/ERC721/ERC721.sol\";\nimport \"@openzeppelin/contracts/token/ERC721/extensions/ERC721URIStorage.sol\";\n\ncontract CarSalonNFT is ERC721URIStorage {\n\n    uint public tokenIDCounter;\n    constructor() ERC721 (\"CarSalon NFT\", \"CSNFT\") {\n        tokenIDCounter = 1;\n    }\n\n    function createClientCardNFT(string memory _tokenURI) public returns (uint) {\n        _safeMint(msg.sender, tokenIDCounter);\n        _setTokenURI(tokenIDCounter, _tokenURI);\n        tokenIDCounter += 1;\n    }\n}",
  "sourcePath": "/Users/pro/Development/blockchain/solidity_course/solidity_cars/contracts/CarSalonNFT.sol",
  "compiler": {
    "name": "solc",
    "version": "0.8.5+commit.a4f2e591.Emscripten.clang"
  },
  "schemaVersion": "3.3.3",
  "updatedAt": "2021-07-17T09:43:33.392Z",
  "networkType": "ethereum",
  "devdoc": {
    "kind": "dev",
    "methods": {
      "approve(address,uint256)": {
        "details": "See {IERC721-approve}."
      },
      "balanceOf(address)": {
        "details": "See {IERC721-balanceOf}."
      },
      "getApproved(uint256)": {
        "details": "See {IERC721-getApproved}."
      },
      "isApprovedForAll(address,address)": {
        "details": "See {IERC721-isApprovedForAll}."
      },
      "name()": {
        "details": "See {IERC721Metadata-name}."
      },
      "ownerOf(uint256)": {
        "details": "See {IERC721-ownerOf}."
      },
      "safeTransferFrom(address,address,uint256)": {
        "details": "See {IERC721-safeTransferFrom}."
      },
      "safeTransferFrom(address,address,uint256,bytes)": {
        "details": "See {IERC721-safeTransferFrom}."
      },
      "setApprovalForAll(address,bool)": {
        "details": "See {IERC721-setApprovalForAll}."
      },
      "supportsInterface(bytes4)": {
        "details": "See {IERC165-supportsInterface}."
      },
      "symbol()": {
        "details": "See {IERC721Metadata-symbol}."
      },
      "tokenURI(uint256)": {
        "details": "See {IERC721Metadata-tokenURI}."
      },
      "transferFrom(address,address,uint256)": {
        "details": "See {IERC721-transferFrom}."
      }
    },
    "version": 1
  },
  "userdoc": {
    "kind": "user",
    "methods": {},
    "version": 1
  }
}